{
  "contractName": "Owners",
  "abi": [
    {
      "anonymous": false,
      "inputs": [
        {
          "indexed": false,
          "internalType": "uint256",
          "name": "houseId",
          "type": "uint256"
        },
        {
          "indexed": false,
          "internalType": "string",
          "name": "seller",
          "type": "string"
        },
        {
          "indexed": false,
          "internalType": "string",
          "name": "state",
          "type": "string"
        },
        {
          "indexed": false,
          "internalType": "string",
          "name": "street",
          "type": "string"
        },
        {
          "indexed": false,
          "internalType": "uint256",
          "name": "precio",
          "type": "uint256"
        },
        {
          "indexed": false,
          "internalType": "uint256",
          "name": "rooms",
          "type": "uint256"
        },
        {
          "indexed": false,
          "internalType": "bool",
          "name": "isAvailable",
          "type": "bool"
        },
        {
          "indexed": false,
          "internalType": "address payable",
          "name": "owner",
          "type": "address"
        }
      ],
      "name": "HouseBuy",
      "type": "event"
    },
    {
      "anonymous": false,
      "inputs": [
        {
          "indexed": false,
          "internalType": "uint256",
          "name": "houseId",
          "type": "uint256"
        },
        {
          "indexed": false,
          "internalType": "string",
          "name": "seller",
          "type": "string"
        },
        {
          "indexed": false,
          "internalType": "string",
          "name": "state",
          "type": "string"
        },
        {
          "indexed": false,
          "internalType": "string",
          "name": "street",
          "type": "string"
        },
        {
          "indexed": false,
          "internalType": "uint256",
          "name": "precio",
          "type": "uint256"
        },
        {
          "indexed": false,
          "internalType": "uint256",
          "name": "rooms",
          "type": "uint256"
        },
        {
          "indexed": false,
          "internalType": "bool",
          "name": "isAvailable",
          "type": "bool"
        },
        {
          "indexed": false,
          "internalType": "address payable",
          "name": "owner",
          "type": "address"
        }
      ],
      "name": "HouseEvent",
      "type": "event"
    },
    {
      "inputs": [
        {
          "internalType": "uint256",
          "name": "",
          "type": "uint256"
        }
      ],
      "name": "houses",
      "outputs": [
        {
          "internalType": "uint256",
          "name": "houseId",
          "type": "uint256"
        },
        {
          "internalType": "string",
          "name": "seller",
          "type": "string"
        },
        {
          "internalType": "string",
          "name": "state",
          "type": "string"
        },
        {
          "internalType": "string",
          "name": "street",
          "type": "string"
        },
        {
          "internalType": "uint256",
          "name": "precio",
          "type": "uint256"
        },
        {
          "internalType": "uint256",
          "name": "rooms",
          "type": "uint256"
        },
        {
          "internalType": "bool",
          "name": "isAvailable",
          "type": "bool"
        },
        {
          "internalType": "address payable",
          "name": "owner",
          "type": "address"
        }
      ],
      "stateMutability": "view",
      "type": "function",
      "constant": true
    },
    {
      "inputs": [],
      "name": "total",
      "outputs": [
        {
          "internalType": "uint256",
          "name": "",
          "type": "uint256"
        }
      ],
      "stateMutability": "view",
      "type": "function",
      "constant": true
    },
    {
      "inputs": [
        {
          "internalType": "uint256",
          "name": "_houseId",
          "type": "uint256"
        }
      ],
      "name": "buy",
      "outputs": [],
      "stateMutability": "nonpayable",
      "type": "function"
    },
    {
      "inputs": [
        {
          "internalType": "string",
          "name": "_seller",
          "type": "string"
        },
        {
          "internalType": "string",
          "name": "_state",
          "type": "string"
        },
        {
          "internalType": "string",
          "name": "_street",
          "type": "string"
        },
        {
          "internalType": "uint256",
          "name": "_precio",
          "type": "uint256"
        },
        {
          "internalType": "uint256",
          "name": "_rooms",
          "type": "uint256"
        }
      ],
      "name": "addNewHouse",
      "outputs": [],
      "stateMutability": "nonpayable",
      "type": "function"
    }
  ],
  "bytecode": "0x6080604052600060015534801561001557600080fd5b50610dc2806100256000396000f3fe608060405234801561001057600080fd5b506004361061004c5760003560e01c80632ddbd13a14610051578063aeda852f1461006f578063d96a094a146100a6578063ec0e2033146100c2575b600080fd5b6100596100de565b6040516100669190610a6d565b60405180910390f35b610089600480360381019061008491906109da565b6100e4565b60405161009d989796959493929190610a88565b60405180910390f35b6100c060048036038101906100bb91906109da565b6102f1565b005b6100dc60048036038101906100d7919061090b565b610634565b005b60015481565b600060205280600052604060002060009150905080600001549080600101805461010d90610c17565b80601f016020809104026020016040519081016040528092919081815260200182805461013990610c17565b80156101865780601f1061015b57610100808354040283529160200191610186565b820191906000526020600020905b81548152906001019060200180831161016957829003601f168201915b50505050509080600201805461019b90610c17565b80601f01602080910402602001604051908101604052809291908181526020018280546101c790610c17565b80156102145780601f106101e957610100808354040283529160200191610214565b820191906000526020600020905b8154815290600101906020018083116101f757829003601f168201915b50505050509080600301805461022990610c17565b80601f016020809104026020016040519081016040528092919081815260200182805461025590610c17565b80156102a25780601f10610277576101008083540402835291602001916102a2565b820191906000526020600020905b81548152906001019060200180831161028557829003601f168201915b5050505050908060040154908060050154908060060160009054906101000a900460ff16908060060160019054906101000a900473ffffffffffffffffffffffffffffffffffffffff16905088565b60008110158015610303575060015481105b61030c57600080fd5b6000806000838152602001908152602001600020604051806101000160405290816000820154815260200160018201805461034690610c17565b80601f016020809104026020016040519081016040528092919081815260200182805461037290610c17565b80156103bf5780601f10610394576101008083540402835291602001916103bf565b820191906000526020600020905b8154815290600101906020018083116103a257829003601f168201915b505050505081526020016002820180546103d890610c17565b80601f016020809104026020016040519081016040528092919081815260200182805461040490610c17565b80156104515780601f1061042657610100808354040283529160200191610451565b820191906000526020600020905b81548152906001019060200180831161043457829003601f168201915b5050505050815260200160038201805461046a90610c17565b80601f016020809104026020016040519081016040528092919081815260200182805461049690610c17565b80156104e35780601f106104b8576101008083540402835291602001916104e3565b820191906000526020600020905b8154815290600101906020018083116104c657829003601f168201915b5050505050815260200160048201548152602001600582015481526020016006820160009054906101000a900460ff161515151581526020016006820160019054906101000a900473ffffffffffffffffffffffffffffffffffffffff1673ffffffffffffffffffffffffffffffffffffffff1673ffffffffffffffffffffffffffffffffffffffff168152505090506001151560008084815260200190815260200160002060060160009054906101000a900460ff161515146105a657600080fd5b600080600084815260200190815260200160002060060160006101000a81548160ff0219169083151502179055507f2dc1c672064102cf1f01b75748ac8877ba10b695bafebcc384bd92a7f92054c660015482602001518360400151846060015185608001518660a00151600033604051610628989796959493929190610a88565b60405180910390a15050565b6001600081548092919061064790610c7a565b919050555060405180610100016040528060015481526020018681526020018581526020018481526020018381526020018281526020016001151581526020013373ffffffffffffffffffffffffffffffffffffffff1681525060008060015481526020019081526020016000206000820151816000015560208201518160010190805190602001906106db9291906107e3565b5060408201518160020190805190602001906106f89291906107e3565b5060608201518160030190805190602001906107159291906107e3565b506080820151816004015560a0820151816005015560c08201518160060160006101000a81548160ff02191690831515021790555060e08201518160060160016101000a81548173ffffffffffffffffffffffffffffffffffffffff021916908373ffffffffffffffffffffffffffffffffffffffff1602179055509050507f4360f1b55d5c4b0641788ff096e7901174f6d22c8e1d58b346bc8e98fd586a7a60015486868686866001336040516107d4989796959493929190610a88565b60405180910390a15050505050565b8280546107ef90610c17565b90600052602060002090601f0160209004810192826108115760008555610858565b82601f1061082a57805160ff1916838001178555610858565b82800160010185558215610858579182015b8281111561085757825182559160200191906001019061083c565b5b5090506108659190610869565b5090565b5b8082111561088257600081600090555060010161086a565b5090565b600061089961089484610b40565b610b1b565b9050828152602081018484840111156108b5576108b4610d55565b5b6108c0848285610bd5565b509392505050565b600082601f8301126108dd576108dc610d50565b5b81356108ed848260208601610886565b91505092915050565b60008135905061090581610d75565b92915050565b600080600080600060a0868803121561092757610926610d5f565b5b600086013567ffffffffffffffff81111561094557610944610d5a565b5b610951888289016108c8565b955050602086013567ffffffffffffffff81111561097257610971610d5a565b5b61097e888289016108c8565b945050604086013567ffffffffffffffff81111561099f5761099e610d5a565b5b6109ab888289016108c8565b93505060606109bc888289016108f6565b92505060806109cd888289016108f6565b9150509295509295909350565b6000602082840312156109f0576109ef610d5f565b5b60006109fe848285016108f6565b91505092915050565b610a1081610b8d565b82525050565b610a1f81610b9f565b82525050565b6000610a3082610b71565b610a3a8185610b7c565b9350610a4a818560208601610be4565b610a5381610d64565b840191505092915050565b610a6781610bcb565b82525050565b6000602082019050610a826000830184610a5e565b92915050565b600061010082019050610a9e600083018b610a5e565b8181036020830152610ab0818a610a25565b90508181036040830152610ac48189610a25565b90508181036060830152610ad88188610a25565b9050610ae76080830187610a5e565b610af460a0830186610a5e565b610b0160c0830185610a16565b610b0e60e0830184610a07565b9998505050505050505050565b6000610b25610b36565b9050610b318282610c49565b919050565b6000604051905090565b600067ffffffffffffffff821115610b5b57610b5a610d21565b5b610b6482610d64565b9050602081019050919050565b600081519050919050565b600082825260208201905092915050565b6000610b9882610bab565b9050919050565b60008115159050919050565b600073ffffffffffffffffffffffffffffffffffffffff82169050919050565b6000819050919050565b82818337600083830152505050565b60005b83811015610c02578082015181840152602081019050610be7565b83811115610c11576000848401525b50505050565b60006002820490506001821680610c2f57607f821691505b60208210811415610c4357610c42610cf2565b5b50919050565b610c5282610d64565b810181811067ffffffffffffffff82111715610c7157610c70610d21565b5b80604052505050565b6000610c8582610bcb565b91507fffffffffffffffffffffffffffffffffffffffffffffffffffffffffffffffff821415610cb857610cb7610cc3565b5b600182019050919050565b7f4e487b7100000000000000000000000000000000000000000000000000000000600052601160045260246000fd5b7f4e487b7100000000000000000000000000000000000000000000000000000000600052602260045260246000fd5b7f4e487b7100000000000000000000000000000000000000000000000000000000600052604160045260246000fd5b600080fd5b600080fd5b600080fd5b600080fd5b6000601f19601f8301169050919050565b610d7e81610bcb565b8114610d8957600080fd5b5056fea2646970667358221220ce82294c4179b824c0c5573eee1955ea00c727706a5e95782b29ae78a2d9a71764736f6c63430008060033",
  "immutableReferences": {},
  "source": "// SPDX-License-Identifier: MIT\r\npragma solidity ^0.8.6;\r\n\r\ncontract Owners {    \r\n\r\n    struct House {\r\n        uint256 houseId; //Identificador\r\n        string seller; //Nombre Dueo\r\n        string state;  //estado\r\n        string street; //Direccion de la propiedad\r\n        uint256 precio;  \r\n        uint256 rooms; \r\n        bool isAvailable; //Marcar si esta vendida o no \r\n        address payable owner;\r\n    }\r\n\r\n    event HouseEvent (\r\n        uint256 houseId,\r\n        string seller,\r\n        string state,\r\n        string street,\r\n        uint256 precio, \r\n        uint256 rooms,\r\n        bool isAvailable,\r\n        address payable owner\r\n    );\r\n\r\n    event HouseBuy (\r\n        uint256 houseId,\r\n        string seller,\r\n        string state,\r\n        string street,\r\n        uint256 precio, \r\n        uint256 rooms,\r\n        bool isAvailable,\r\n        address payable owner\r\n    );\r\n\r\n    \r\n\r\n    mapping(uint256 => House) public houses;\r\n    uint256 public total=0;\r\n\r\n  \r\n    //Comprar casa\r\n    function buy(uint256 _houseId) public{         \r\n      require(_houseId >= 0 && _houseId < total); \r\n      House memory _house = houses[_houseId];  \r\n      \r\n    \r\n       //La casa se puede comprar\r\n       require(houses[_houseId].isAvailable == true);\r\n\r\n       //Registramos la compra    \r\n       houses[_houseId].isAvailable = false;\r\n      emit HouseBuy(total, _house.seller, _house.state, _house.street , _house.precio, _house.rooms, false, payable(msg.sender)); \r\n    }\r\n\r\n\r\n    //Agregar nueva casa\r\n    function addNewHouse(string memory _seller, string memory _state, string memory _street, uint256 _precio, uint256 _rooms) public {\r\n      total++;\r\n      houses[total]= House(total, _seller, _state, _street , _precio, _rooms, true, payable(msg.sender));\r\n      emit HouseEvent(total, _seller, _state, _street , _precio, _rooms, true, payable(msg.sender));\r\n        \r\n    }\r\n\r\n\r\n}",
  "sourcePath": "C:\\Users\\Laura\\tmp\\Blockchain\\contracts\\Owners.sol",
  "compiler": {
    "name": "solc",
    "version": "0.8.6+commit.11564f7e.Emscripten.clang"
  },
  "schemaVersion": "3.4.4",
  "updatedAt": "2022-02-20T10:16:50.849Z",
  "networkType": "ethereum",
  "devdoc": {
    "kind": "dev",
    "methods": {},
    "version": 1
  },
  "userdoc": {
    "kind": "user",
    "methods": {},
    "version": 1
  }
}